:100000003AC05EC153C052C051C050C04FC04EC074
:100010004DC04CC04BC04AC049C048C047C046C094
:1000200045C044C043C00403090412036F006200CA
:100030006400650076002E006100740016034C0019
:100040004500440043006F006E00740072006F00B2
:100050006C0012011001FF000008C016DC05000151
:1000600001020001090212000101008014090400CC
:1000700000000000000011241FBECFE5D4E0DEBF69
:10008000CDBF10E0A0E6B0E0E6EAF9E002C00590DE
:100090000D92A636B107D9F710E0A6E6B0E001C090
:1000A0001D92AF3AB107E1F72DD47BC4A9CF1F93BE
:1000B000CF93DF9380918300835087FD83C090911D
:1000C000800020917F002D3209F07AC0883009F03D
:1000D00077C0CCE0D0E0C91BD109C957DF4F83EC12
:1000E000809373008AE58093600010926600888197
:1000F000807619F0CE0180D35AC09A8110927C008C
:100100008981882331F410927D002CE730E082E071
:100110004AC0853019F4909384003BC0863081F545
:100120008B81813019F482E590E015C0823019F49A
:1001300084E690E010C08330F1F4992341F486E224
:1001400090E0909382008093810084E015C091300C
:1001500041F48AE290E0909382008093810082E1F2
:100160000BC0923041F48CE390E090938200809336
:10017000810086E101C080E090E49093660017C0A2
:10018000883059F0893019F49093860002C08A3083
:1001900039F02CE730E080E006C026E830E002C00D
:1001A0002CE730E081E030938200209381009F8132
:1001B000992321F49E81981708F4892F8093610078
:1001C000109283008091600084FF4CC08091610098
:1001D0008F3F09F447C0182F893008F018E0811BC1
:1001E000809361008091730098E889278093730061
:1001F000112361F18091810090918200309166001D
:10020000212F215036FF0EC030E0A9014B585F4F1F
:10021000FC01A4E7B0E064916D933196A417B50793
:10022000D1F70CC0DC0130E0A9014B585F4FE4E787
:10023000F0E06D916193E417F507D9F72F5F3F4F19
:10024000280F391F309382002093810084E790E0CB
:10025000612F32D01C5F1C3019F08FEF809361004A
:100260001093600084E190B3967031F48150D9F717
:100270001092840010927E00DF91CF911F9108951B
:1002800085B7826085BF8BB780648BBF0895A82F28
:10029000B92F80E090E041E050EA609530E009C07D
:1002A0002D9182279795879510F084279527305EAA
:1002B000C8F36F5FA8F30895EADF8D939D930895C7
:1002C000CF93CFB7CF93DF93C395819BE9F7819B02
:1002D0000BC0819B09C0819B07C0819B05C0819B8E
:1002E00003C0819B01C089C06F93C0918000DD274E
:1002F000C957DF4F2F9365E5819B03C02F916F9105
:10030000E6CF0F931F934F9320E040E15F9300B33C
:10031000067001FB27F93F9350E03BE039C01670AF
:1003200040642F77012F5F5F1EC0406810B31670C6
:100330002F7752501FC0406400B32F770670D1F161
:100340005F5F00C023C0406210B32F77167091F139
:100350005F5F00C025C006701027515012F45D5F2A
:100360000000115027952C3F10B3C8F616700127D6
:10037000015027952C3FC8F64227499300B30670D9
:1003800010274F73115027952C3FA8F64695469598
:1003900010B3167079F00127015027952C3F98F67D
:1003A0006B5A60F3315000B3B0F600C010E41ABFCE
:1003B000002717C03B503195C31BD04010E41ABF33
:1003C0000881033CF9F00B34E9F020917E0019819B
:1003D000110F1213EDCF093651F10D3211F0013E1C
:1003E00039F7009385003F915F914F911F910F91D5
:1003F0002F916F91CAB7C6FD67CFDF91CF91CFBF65
:10040000CF91189520918500222369F310918300E4
:10041000112339F534303AF13093830020937F0073
:10042000109180003BE0311B309380001CC0009194
:1004300083000130B4F40AE53091600034FD14C04B
:1004400000936000C3E7D0E013C0052710E000C0B0
:10045000000002BB1AC0052710E0221F1DC010E0DB
:1004600021C04AE502C032ED432FC4E1D0E032E0C2
:1004700011B31660919A02B311BB56E020E865E310
:1004800020FF052702BB279517951C3FF0F66695C0
:10049000B8F7B1F720FF052702BB279517951C3F3A
:1004A000D0F62795179517FF052700001C3F02BBC4
:1004B000B0F629913A9519F7097F10918400110F30
:1004C000C651D04002BB11F010937E0010E41ABF59
:1004D000026011B3197F402F497F54E05A95F1F71C
:1004E00002BB11BB42BB7FCFFB016AE227D2292F9F
:1004F000220F290F220F66E021D29330D9F09430D9
:1005000028F4913059F0923029F40FC09430C1F0A2
:100510009530D1F08CEF8083218305C08CEF982F2C
:10052000921B908381831282089510828CEF8183C5
:100530002283089510828CEF982F921B918308C01C
:10054000208311828CEF04C08CEF80831182821B88
:1005500082830895FF920F931F93DF93CF9300D070
:100560000F92CDB7DEB78C01F62E862FBE016F5FDE
:100570007F4FBADF40E050E020E030E004C02D5F64
:100580003F4F4F5F5F4F40175107CCF3F901E356E0
:10059000FF4FA9014F5F5F4F2E5F3F4FFF2051F488
:1005A000108243565F4FFA01108223563F4FF901E4
:1005B00010820CC0898180838A8143565F4FFA0183
:1005C00080838B8123563F4FF90180830F900F90DA
:1005D0000F90CF91DF911F910F91FF900895BF92DF
:1005E000CF92DF92EF92FF920F931F93DF93CF93FF
:1005F00000D000D0CDB7DEB78C01B62E862FBE015D
:100600006F5F7F4F4C8370DF80E090E020E030E050
:100610004C8103C02D5F3F4F019680179107D4F3A3
:10062000890103561F4F79010894E11CF11C82E0F7
:10063000C82ED12CC20ED31EBB2059F4D8011C9257
:10064000F701E356FF4F1082F601E356FF4F108289
:100650002FC0E42FF0E0298130E0E29FC001E39F4A
:10066000900DF29F900D11242FEF30E0B90172D15F
:10067000D8016C934A8150E0E49FC001E59F900D42
:10068000F49F900D1124B90165D1D701A356BF4F36
:100690006C934B8150E0E49FC001E59F900DF49F67
:1006A000900D1124B90156D1F601E356FF4F608336
:1006B0000F900F900F900F90CF91DF911F910F919E
:1006C000FF90EF90DF90CF90BF90089580916400ED
:1006D00088BB8091630082BB809162008F5F8093B2
:1006E0006200882351F590919D009093A60090910F
:1006F0009E009093A70090919F009093A8009091E6
:10070000A0009093A9009091A1009093AA009091CD
:10071000A2009093AB009091A3009093AC009091B5
:10072000A4009093AD009091A5009093AE009FE33C
:100730009093640090EE909363009091A6009817B8
:1007400029F4909164009E7F909364009091A7009B
:10075000981729F4909164009D7F90936400909184
:10076000A800981729F4909164009B7F90936400EF
:100770009091A900981729F490916400977F909325
:1007800064009091AA00981729F4909164009F7ECC
:10079000909364009091AB00981729F490916400B5
:1007A0009F7D909364009091AC00981729F49091EC
:1007B00063009F7D909363009091AD00981729F49A
:1007C000909163009F7B909363009091AE00981787
:1007D00029F4809163008F77809363000895F894E3
:1007E00017BA87B38F6387BB14BAA19A11BA81B3C2
:1007F000806E81BB78940895FC0181818823A1F4E7
:10080000828180936D00838180936E0084818093C8
:100810006F008581809370008DE690E09093820058
:100820008093810084E00895813039F4828180FFD3
:1008300002C0A99A63C0A99861C0823069F481E0BE
:10084000A99B80E080936D008DE690E090938200FC
:100850008093810081E00895833001F580916700E5
:1008600080936D008091680080936E008091690094
:1008700080936F0080916A008093700080916B007C
:100880008093710080916C00809372008DE690E0FF
:10089000909382008093810086E00895843071F502
:1008A0008481882369F482818093670083818093A7
:1008B0006800609167004091680080E090E01DC092
:1008C000813069F4828180936900838180936A001A
:1008D0006091690040916A0081E090E00EC0823032
:1008E00079F4828180936B00838180936C006091A6
:1008F0006B0040916C0082E090E071DE80E0089532
:1009000080E008952EE088E190E00FB6F894A89575
:1009100081BD0FBE21BDB4DC899A40E020EA3FE0F2
:1009200004C0A895C9010197F1F74150D1F7899802
:1009300056DFA19AA895BBDBC9DEFCCF991B79E0F5
:1009400004C0991F961708F0961B881F7A95C9F75F
:100950008095089597FB092E07260AD077FD04D0CD
:100960000CD006D000201AF4709561957F4F089541
:10097000F6F7909581959F4F0895AA1BBB1B51E1F7
:1009800007C0AA1FBB1FA617B70710F0A61BB70BFF
:10099000881F991F5A95A9F780959095BC01CD01A4
:0609A0000895F894FFCF5A
:0609A6005AFFFFE03F00D4
:00000001FF
